{
  "contractName": "Deployer",
  "abi": [
    {
      "constant": true,
      "inputs": [],
      "name": "overlord",
      "outputs": [
        {
          "name": "",
          "type": "address"
        }
      ],
      "payable": false,
      "stateMutability": "view",
      "type": "function",
      "signature": "0xd82671c9"
    },
    {
      "inputs": [
        {
          "name": "_overlord",
          "type": "address"
        }
      ],
      "payable": false,
      "stateMutability": "nonpayable",
      "type": "constructor",
      "signature": "constructor"
    },
    {
      "payable": false,
      "stateMutability": "nonpayable",
      "type": "fallback"
    },
    {
      "anonymous": false,
      "inputs": [
        {
          "indexed": true,
          "name": "deployedAddress",
          "type": "address"
        },
        {
          "indexed": true,
          "name": "deployer",
          "type": "address"
        }
      ],
      "name": "Deployed",
      "type": "event",
      "signature": "0x09e48df7857bd0c1e0d31bb8a85d42cf1874817895f171c917f6ee2cea73ec20"
    },
    {
      "constant": false,
      "inputs": [
        {
          "name": "_name",
          "type": "string"
        },
        {
          "name": "_deposit",
          "type": "uint256"
        },
        {
          "name": "_limitOfParticipants",
          "type": "uint256"
        },
        {
          "name": "_coolingPeriod",
          "type": "uint256"
        },
        {
          "name": "_encryption",
          "type": "string"
        }
      ],
      "name": "deploy",
      "outputs": [],
      "payable": false,
      "stateMutability": "nonpayable",
      "type": "function",
      "signature": "0x85e8b1da"
    }
  ],
  "bytecode": "0x608060405234801561001057600080fd5b50604051602080612c8683398101806040528101908080519060200190929190505050806000806101000a81548173ffffffffffffffffffffffffffffffffffffffff021916908373ffffffffffffffffffffffffffffffffffffffff16021790555050612c03806100836000396000f30060806040526004361061004c576000357c0100000000000000000000000000000000000000000000000000000000900463ffffffff16806385e8b1da1461005e578063d82671c9146100cf575b34801561005857600080fd5b50600080fd5b34801561006a57600080fd5b506100cd600480360381019080803590602001908201803590602001919091929391929390803590602001909291908035906020019092919080359060200190929190803590602001908201803590602001919091929391929390505050610126565b005b3480156100db57600080fd5b506100e4610246565b604051808273ffffffffffffffffffffffffffffffffffffffff1673ffffffffffffffffffffffffffffffffffffffff16815260200191505060405180910390f35b6000338888888888888861013861026b565b808973ffffffffffffffffffffffffffffffffffffffff1673ffffffffffffffffffffffffffffffffffffffff168152602001806020018781526020018681526020018581526020018060200183810383528a8a828181526020019250808284378201915050838103825285858281815260200192508082843782019150509a5050505050505050505050604051809103906000f0801580156101df573d6000803e3d6000fd5b5090503373ffffffffffffffffffffffffffffffffffffffff168173ffffffffffffffffffffffffffffffffffffffff167f09e48df7857bd0c1e0d31bb8a85d42cf1874817895f171c917f6ee2cea73ec2060405160405180910390a35050505050505050565b6000809054906101000a900473ffffffffffffffffffffffffffffffffffffffff1681565b60405161295c8061027c83390190560060806040523480156200001157600080fd5b506040516200295c3803806200295c833981018060405281019080805190602001909291908051820192919060200180519060200190929190805190602001909291908051906020019092919080518201929190505050336000806101000a81548173ffffffffffffffffffffffffffffffffffffffff021916908373ffffffffffffffffffffffffffffffffffffffff160217905550856000806101000a81548173ffffffffffffffffffffffffffffffffffffffff021916908373ffffffffffffffffffffffffffffffffffffffff16021790555060008551141515620001135784600290805190602001906200010c929190620001ff565b5062000162565b6040805190810160405280600481526020017f54657374000000000000000000000000000000000000000000000000000000008152506002908051906020019062000160929190620001ff565b505b6000841415156200017a578360038190555062000189565b66470de4df8200006003819055505b600083141515620001a15782600481905550620001aa565b60146004819055505b600082141515620001c25781600981905550620001cd565b62093a806009819055505b60008151141515620001f35780600b9080519060200190620001f1929190620001ff565b505b505050505050620002ae565b828054600181600116156101000203166002900490600052602060002090601f016020900481019282601f106200024257805160ff191683800117855562000273565b8280016001018555821562000273579182015b828111156200027257825182559160200191906001019062000255565b5b50905062000282919062000286565b5090565b620002ab91905b80821115620002a75760008160009055506001016200028d565b5090565b90565b61269e80620002be6000396000f3006080604052600436106101cd576000357c0100000000000000000000000000000000000000000000000000000000900463ffffffff1680630191dc92146101d257806305f203d9146101fd57806306fdde031461026357806309e69ede146102f357806312fa6feb146103f857806314bfd6d0146104275780631e3c93521461049457806324d7806c146104fa5780632de40ce31461055557806331ae450b146105805780633ccfd60b146105ec5780633d6a71e41461060357806352efea6e1461062e5780635353a2d8146106455780635d27bff31461068057806363bd1d4a146106c65780636b46c8c3146106f15780636d006ae81461071c5780636ded82f81461074757806383197ef0146107a2578063854bec87146107b95780638da5cb5b146107d05780639328beee14610827578063982495c7146108525780639989a5ae1461088d5780639a82a09a146108ba5780639b25cacb146108e9578063a07f3a5614610956578063a531d362146109b1578063ad7a672f14610a41578063b5e10e9a14610a6c578063c3c5a54714610a97578063d0e30db014610af2578063ea8a1af014610b1d578063f2c298be14610b34578063f2fde38b14610b62578063f5074f4114610ba5575b600080fd5b3480156101de57600080fd5b506101e7610be8565b6040518082815260200191505060405180910390f35b34801561020957600080fd5b5061026160048036038101908080359060200190820180359060200190808060200260200160405190810160405280939291908181526020018383602002808284378201915050505050509192919290505050610bf5565b005b34801561026f57600080fd5b50610278610e22565b6040518080602001828103825283818151815260200191508051906020019080838360005b838110156102b857808201518184015260208101905061029d565b50505050905090810190601f1680156102e55780820380516001836020036101000a031916815260200191505b509250505060405180910390f35b3480156102ff57600080fd5b50610334600480360381019080803573ffffffffffffffffffffffffffffffffffffffff169060200190929190505050610ec0565b60405180806020018573ffffffffffffffffffffffffffffffffffffffff1673ffffffffffffffffffffffffffffffffffffffff1681526020018415151515815260200183151515158152602001828103825286818151815260200191508051906020019080838360005b838110156103ba57808201518184015260208101905061039f565b50505050905090810190601f1680156103e75780820380516001836020036101000a031916815260200191505b509550505050505060405180910390f35b34801561040457600080fd5b5061040d610fc2565b604051808215151515815260200191505060405180910390f35b34801561043357600080fd5b5061045260048036038101908080359060200190929190505050610fd5565b604051808273ffffffffffffffffffffffffffffffffffffffff1673ffffffffffffffffffffffffffffffffffffffff16815260200191505060405180910390f35b3480156104a057600080fd5b506104f860048036038101908080359060200190820180359060200190808060200260200160405190810160405280939291908181526020018383602002808284378201915050505050509192919290505050611013565b005b34801561050657600080fd5b5061053b600480360381019080803573ffffffffffffffffffffffffffffffffffffffff169060200190929190505050611166565b604051808215151515815260200191505060405180910390f35b34801561056157600080fd5b5061056a611267565b6040518082815260200191505060405180910390f35b34801561058c57600080fd5b5061059561126d565b6040518080602001828103825283818151815260200191508051906020019060200280838360005b838110156105d85780820151818401526020810190506105bd565b505050509050019250505060405180910390f35b3480156105f857600080fd5b506106016112fb565b005b34801561060f57600080fd5b506106186115f4565b6040518082815260200191505060405180910390f35b34801561063a57600080fd5b506106436115fa565b005b34801561065157600080fd5b5061067e600480360381019080803590602001908201803590602001919091929391929390505050611787565b005b6106c4600480360381019080803590602001908201803590602001919091929391929390803590602001908201803590602001919091929391929390505050611809565b005b3480156106d257600080fd5b506106db61190d565b6040518082815260200191505060405180910390f35b3480156106fd57600080fd5b5061070661193d565b6040518082815260200191505060405180910390f35b34801561072857600080fd5b50610731611943565b6040518082815260200191505060405180910390f35b34801561075357600080fd5b50610788600480360381019080803573ffffffffffffffffffffffffffffffffffffffff169060200190929190505050611949565b604051808215151515815260200191505060405180910390f35b3480156107ae57600080fd5b506107b76119b3565b005b3480156107c557600080fd5b506107ce611a48565b005b3480156107dc57600080fd5b506107e5611b2a565b604051808273ffffffffffffffffffffffffffffffffffffffff1673ffffffffffffffffffffffffffffffffffffffff16815260200191505060405180910390f35b34801561083357600080fd5b5061083c611b4f565b6040518082815260200191505060405180910390f35b34801561085e57600080fd5b5061088b600480360381019080803590602001908201803590602001919091929391929390505050611b55565b005b34801561089957600080fd5b506108b860048036038101908080359060200190929190505050611cd1565b005b3480156108c657600080fd5b506108cf611d52565b604051808215151515815260200191505060405180910390f35b3480156108f557600080fd5b5061091460048036038101908080359060200190929190505050611d65565b604051808273ffffffffffffffffffffffffffffffffffffffff1673ffffffffffffffffffffffffffffffffffffffff16815260200191505060405180910390f35b34801561096257600080fd5b50610997600480360381019080803573ffffffffffffffffffffffffffffffffffffffff169060200190929190505050611d98565b604051808215151515815260200191505060405180910390f35b3480156109bd57600080fd5b506109c6611e02565b6040518080602001828103825283818151815260200191508051906020019080838360005b83811015610a065780820151818401526020810190506109eb565b50505050905090810190601f168015610a335780820380516001836020036101000a031916815260200191505b509250505060405180910390f35b348015610a4d57600080fd5b50610a56611ea0565b6040518082815260200191505060405180910390f35b348015610a7857600080fd5b50610a81611ebf565b6040518082815260200191505060405180910390f35b348015610aa357600080fd5b50610ad8600480360381019080803573ffffffffffffffffffffffffffffffffffffffff169060200190929190505050611ec5565b604051808215151515815260200191505060405180910390f35b348015610afe57600080fd5b50610b07611f60565b6040518082815260200191505060405180910390f35b348015610b2957600080fd5b50610b32611f66565b005b610b60600480360381019080803590602001908201803590602001919091929391929390505050612051565b005b348015610b6e57600080fd5b50610ba3600480360381019080803573ffffffffffffffffffffffffffffffffffffffff169060200190929190505050612145565b005b348015610bb157600080fd5b50610be6600480360381019080803573ffffffffffffffffffffffffffffffffffffffff1690602001909291905050506121ac565b005b6000600180549050905090565b6000806000809054906101000a900473ffffffffffffffffffffffffffffffffffffffff1673ffffffffffffffffffffffffffffffffffffffff163373ffffffffffffffffffffffffffffffffffffffff16141515610c5357600080fd5b600091505b8251821015610e1d57600090505b600180549050811015610e10578282815181101515610c8157fe5b9060200190602002015173ffffffffffffffffffffffffffffffffffffffff16600182815481101515610cb057fe5b9060005260206000200160009054906101000a900473ffffffffffffffffffffffffffffffffffffffff1673ffffffffffffffffffffffffffffffffffffffff161415610e0357600180808054905003815481101515610d0c57fe5b9060005260206000200160009054906101000a900473ffffffffffffffffffffffffffffffffffffffff16600182815481101515610d4657fe5b9060005260206000200160006101000a81548173ffffffffffffffffffffffffffffffffffffffff021916908373ffffffffffffffffffffffffffffffffffffffff1602179055506001805480919060019003610da391906124de565b508282815181101515610db257fe5b9060200190602002015173ffffffffffffffffffffffffffffffffffffffff167f631ff1c4e1a02c54b480a34b810e03bcee61fe38efcb243930a7f820914923e260405160405180910390a2610e10565b8080600101915050610c66565b8180600101925050610c58565b505050565b60028054600181600116156101000203166002900480601f016020809104026020016040519081016040528092919081815260200182805460018160011615610100020316600290048015610eb85780601f10610e8d57610100808354040283529160200191610eb8565b820191906000526020600020905b815481529060010190602001808311610e9b57829003601f168201915b505050505081565b600c602052806000526040600020600091509050806000018054600181600116156101000203166002900480601f016020809104026020016040519081016040528092919081815260200182805460018160011615610100020316600290048015610f6c5780601f10610f4157610100808354040283529160200191610f6c565b820191906000526020600020905b815481529060010190602001808311610f4f57829003601f168201915b5050505050908060010160009054906101000a900473ffffffffffffffffffffffffffffffffffffffff16908060010160149054906101000a900460ff16908060010160159054906101000a900460ff16905084565b600760009054906101000a900460ff1681565b600181815481101515610fe457fe5b906000526020600020016000915054906101000a900473ffffffffffffffffffffffffffffffffffffffff1681565b60008060009054906101000a900473ffffffffffffffffffffffffffffffffffffffff1673ffffffffffffffffffffffffffffffffffffffff163373ffffffffffffffffffffffffffffffffffffffff1614151561107057600080fd5b600090505b8151811015611162576001828281518110151561108e57fe5b9060200190602002015190806001815401808255809150509060018203906000526020600020016000909192909190916101000a81548173ffffffffffffffffffffffffffffffffffffffff021916908373ffffffffffffffffffffffffffffffffffffffff16021790555050818181518110151561110957fe5b9060200190602002015173ffffffffffffffffffffffffffffffffffffffff167f1c4e23de8d72c94b22992bd4d7b6786b215ba876af214ff63e6a0ca38fc97af460405160405180910390a28080600101915050611075565b5050565b6000806000809054906101000a900473ffffffffffffffffffffffffffffffffffffffff1673ffffffffffffffffffffffffffffffffffffffff168373ffffffffffffffffffffffffffffffffffffffff1614156111c75760019150611261565b600090505b60018054905081101561125c578273ffffffffffffffffffffffffffffffffffffffff166001828154811015156111ff57fe5b9060005260206000200160009054906101000a900473ffffffffffffffffffffffffffffffffffffffff1673ffffffffffffffffffffffffffffffffffffffff16141561124f5760019150611261565b80806001019150506111cc565b600091505b50919050565b60055481565b606060018054806020026020016040519081016040528092919081815260200182805480156112f157602002820191906000526020600020905b8160009054906101000a900473ffffffffffffffffffffffffffffffffffffffff1673ffffffffffffffffffffffffffffffffffffffff16815260200190600101908083116112a7575b5050505050905090565b61130361250a565b600760009054906101000a900460ff16151561131e57600080fd5b6000600a5411151561132f57600080fd5b600c60003373ffffffffffffffffffffffffffffffffffffffff1673ffffffffffffffffffffffffffffffffffffffff16815260200190815260200160002060806040519081016040529081600082018054600181600116156101000203166002900480601f0160208091040260200160405190810160405280929190818152602001828054600181600116156101000203166002900480156114135780601f106113e857610100808354040283529160200191611413565b820191906000526020600020905b8154815290600101906020018083116113f657829003601f168201915b505050505081526020016001820160009054906101000a900473ffffffffffffffffffffffffffffffffffffffff1673ffffffffffffffffffffffffffffffffffffffff1673ffffffffffffffffffffffffffffffffffffffff1681526020016001820160149054906101000a900460ff161515151581526020016001820160159054906101000a900460ff16151515158152505090503373ffffffffffffffffffffffffffffffffffffffff16816020015173ffffffffffffffffffffffffffffffffffffffff161415156114e857600080fd5b600760019054906101000a900460ff1680611504575080604001515b151561150f57600080fd5b600015158160600151151514151561152657600080fd5b6001816060019015159081151581525050806020015173ffffffffffffffffffffffffffffffffffffffff166108fc600a549081150290604051600060405180830381858888f19350505050158015611583573d6000803e3d6000fd5b507f5dba113b49cfa7c90315e8e604e6b506f7abcb909b01dcb19ec39005086e68fc33600a54604051808373ffffffffffffffffffffffffffffffffffffffff1673ffffffffffffffffffffffffffffffffffffffff1681526020018281526020019250505060405180910390a150565b60085481565b60008060009054906101000a900473ffffffffffffffffffffffffffffffffffffffff1673ffffffffffffffffffffffffffffffffffffffff163373ffffffffffffffffffffffffffffffffffffffff1614151561165757600080fd5b600760009054906101000a900460ff16151561167257600080fd5b600954600854014211151561168657600080fd5b61168e611ea0565b90506000809054906101000a900473ffffffffffffffffffffffffffffffffffffffff1673ffffffffffffffffffffffffffffffffffffffff166108fc829081150290604051600060405180830381858888f193505050501580156116f7573d6000803e3d6000fd5b507f61355a34c3bc2e502a24eba7ad2fb0fd0d05c4f71de8cb041fbe39cd3649665e6000809054906101000a900473ffffffffffffffffffffffffffffffffffffffff1682604051808373ffffffffffffffffffffffffffffffffffffffff1673ffffffffffffffffffffffffffffffffffffffff1681526020018281526020019250505060405180910390a150565b6000809054906101000a900473ffffffffffffffffffffffffffffffffffffffff1673ffffffffffffffffffffffffffffffffffffffff163373ffffffffffffffffffffffffffffffffffffffff161415156117e257600080fd5b60006005541415156117f357600080fd5b81816002919061180492919061254d565b505050565b600760009054906101000a900460ff1615151561182557600080fd5b61186084848080601f016020809104026020016040519081016040528093929190818152602001838380828437820191505050505050612220565b7f8d272c75acbe64f584f00b43ea2e4ac139abac8e8b8f118e5588e14bbb5c40313385858585604051808673ffffffffffffffffffffffffffffffffffffffff1673ffffffffffffffffffffffffffffffffffffffff1681526020018060200180602001838103835287878281815260200192508082843782019150508381038252858582818152602001925080828437820191505097505050505050505060405180910390a150505050565b6000806006541415611922576000905061193a565b60065461192d611ea0565b81151561193657fe5b0490505b90565b600a5481565b60045481565b600061195482611ec5565b80156119ac5750600c60008373ffffffffffffffffffffffffffffffffffffffff1673ffffffffffffffffffffffffffffffffffffffff16815260200190815260200160002060010160159054906101000a900460ff165b9050919050565b6000809054906101000a900473ffffffffffffffffffffffffffffffffffffffff1673ffffffffffffffffffffffffffffffffffffffff163373ffffffffffffffffffffffffffffffffffffffff16141515611a0e57600080fd5b6000809054906101000a900473ffffffffffffffffffffffffffffffffffffffff1673ffffffffffffffffffffffffffffffffffffffff16ff5b6000809054906101000a900473ffffffffffffffffffffffffffffffffffffffff1673ffffffffffffffffffffffffffffffffffffffff163373ffffffffffffffffffffffffffffffffffffffff16141515611aa357600080fd5b600760009054906101000a900460ff16151515611abf57600080fd5b611ac761190d565b600a819055506001600760006101000a81548160ff021916908315150217905550426008819055507fb7152de35affc741a6b2355d37e9caf51fe847cacfccd414be5e15996ff7e6c6600a546040518082815260200191505060405180910390a1565b6000809054906101000a900473ffffffffffffffffffffffffffffffffffffffff1681565b60095481565b600080611b6133611166565b1515611b6c57600080fd5b600760009054906101000a900460ff16151515611b8857600080fd5b600091505b83839050821015611ccb578383838181101515611ba657fe5b9050602002013573ffffffffffffffffffffffffffffffffffffffff169050611bce81611ec5565b1515611bd957600080fd5b611be281611d98565b151515611bee57600080fd5b7f1c5e7a37dd4095194684d8f835d2c81b686d64d685032055a7cd02edc7c49ed881604051808273ffffffffffffffffffffffffffffffffffffffff1673ffffffffffffffffffffffffffffffffffffffff16815260200191505060405180910390a16001600c60008373ffffffffffffffffffffffffffffffffffffffff1673ffffffffffffffffffffffffffffffffffffffff16815260200190815260200160002060010160146101000a81548160ff0219169083151502179055506006600081548092919060010191905055508180600101925050611b8d565b50505050565b6000809054906101000a900473ffffffffffffffffffffffffffffffffffffffff1673ffffffffffffffffffffffffffffffffffffffff163373ffffffffffffffffffffffffffffffffffffffff16141515611d2c57600080fd5b600760009054906101000a900460ff16151515611d4857600080fd5b8060048190555050565b600760019054906101000a900460ff1681565b600d6020528060005260406000206000915054906101000a900473ffffffffffffffffffffffffffffffffffffffff1681565b6000611da382611ec5565b8015611dfb5750600c60008373ffffffffffffffffffffffffffffffffffffffff1673ffffffffffffffffffffffffffffffffffffffff16815260200190815260200160002060010160149054906101000a900460ff165b9050919050565b600b8054600181600116156101000203166002900480601f016020809104026020016040519081016040528092919081815260200182805460018160011615610100020316600290048015611e985780601f10611e6d57610100808354040283529160200191611e98565b820191906000526020600020905b815481529060010190602001808311611e7b57829003601f168201915b505050505081565b60003073ffffffffffffffffffffffffffffffffffffffff1631905090565b60065481565b60008073ffffffffffffffffffffffffffffffffffffffff16600c60008473ffffffffffffffffffffffffffffffffffffffff1673ffffffffffffffffffffffffffffffffffffffff16815260200190815260200160002060010160009054906101000a900473ffffffffffffffffffffffffffffffffffffffff1673ffffffffffffffffffffffffffffffffffffffff1614159050919050565b60035481565b6000809054906101000a900473ffffffffffffffffffffffffffffffffffffffff1673ffffffffffffffffffffffffffffffffffffffff163373ffffffffffffffffffffffffffffffffffffffff16141515611fc157600080fd5b600760009054906101000a900460ff16151515611fdd57600080fd5b600354600a819055506001600760016101000a81548160ff0219169083151502179055506001600760006101000a81548160ff021916908315150217905550426008819055507faac5ae2dfd439bb6c2f88b2d8af5b285cfee7584ad0d13ae7c00c1226c7c4c7b60405160405180910390a1565b600760009054906101000a900460ff1615151561206d57600080fd5b6120a882828080601f016020809104026020016040519081016040528093929190818152602001838380828437820191505050505050612220565b7f8d272c75acbe64f584f00b43ea2e4ac139abac8e8b8f118e5588e14bbb5c4031338383604051808473ffffffffffffffffffffffffffffffffffffffff1673ffffffffffffffffffffffffffffffffffffffff1681526020018060200180602001838103835285858281815260200192508082843782019150508381038252600081526020016020019550505050505060405180910390a15050565b6000809054906101000a900473ffffffffffffffffffffffffffffffffffffffff1673ffffffffffffffffffffffffffffffffffffffff163373ffffffffffffffffffffffffffffffffffffffff161415156121a057600080fd5b6121a9816123e4565b50565b6000809054906101000a900473ffffffffffffffffffffffffffffffffffffffff1673ffffffffffffffffffffffffffffffffffffffff163373ffffffffffffffffffffffffffffffffffffffff1614151561220757600080fd5b8073ffffffffffffffffffffffffffffffffffffffff16ff5b6003543414151561223057600080fd5b60045460055410151561224257600080fd5b61224b33611ec5565b15151561225757600080fd5b60056000815480929190600101919050555033600d6000600554815260200190815260200160002060006101000a81548173ffffffffffffffffffffffffffffffffffffffff021916908373ffffffffffffffffffffffffffffffffffffffff1602179055506080604051908101604052808281526020013373ffffffffffffffffffffffffffffffffffffffff16815260200160001515815260200160001515815250600c60003373ffffffffffffffffffffffffffffffffffffffff1673ffffffffffffffffffffffffffffffffffffffff16815260200190815260200160002060008201518160000190805190602001906123569291906125cd565b5060208201518160010160006101000a81548173ffffffffffffffffffffffffffffffffffffffff021916908373ffffffffffffffffffffffffffffffffffffffff16021790555060408201518160010160146101000a81548160ff02191690831515021790555060608201518160010160156101000a81548160ff02191690831515021790555090505050565b600073ffffffffffffffffffffffffffffffffffffffff168173ffffffffffffffffffffffffffffffffffffffff161415151561242057600080fd5b8073ffffffffffffffffffffffffffffffffffffffff166000809054906101000a900473ffffffffffffffffffffffffffffffffffffffff1673ffffffffffffffffffffffffffffffffffffffff167f8be0079c531659141344cd1fd0a4f28419497f9722a3daafe3b4186f6b6457e060405160405180910390a3806000806101000a81548173ffffffffffffffffffffffffffffffffffffffff021916908373ffffffffffffffffffffffffffffffffffffffff16021790555050565b81548183558181111561250557818360005260206000209182019101612504919061264d565b5b505050565b60806040519081016040528060608152602001600073ffffffffffffffffffffffffffffffffffffffff1681526020016000151581526020016000151581525090565b828054600181600116156101000203166002900490600052602060002090601f016020900481019282601f1061258e57803560ff19168380011785556125bc565b828001600101855582156125bc579182015b828111156125bb5782358255916020019190600101906125a0565b5b5090506125c9919061264d565b5090565b828054600181600116156101000203166002900490600052602060002090601f016020900481019282601f1061260e57805160ff191683800117855561263c565b8280016001018555821561263c579182015b8281111561263b578251825591602001919060010190612620565b5b509050612649919061264d565b5090565b61266f91905b8082111561266b576000816000905550600101612653565b5090565b905600a165627a7a7230582065ac8efb74f1fd49d57cd54da3dedadf95fba26c3f923e6bb2505bbeb878b7110029a165627a7a7230582038193937d63eba024642833037df7dc9b21f2b7aedbc049407d181f231dc03a70029",
  "source": "pragma solidity ^0.4.24;\n\nimport \"./Party.sol\";\n\n/**\n * This is responsible for deploying a new Party.\n */\ncontract Deployer {\n    /**\n     * Address of Overlord contract.\n     */\n    address public overlord;\n\n    /**\n     * Notify that a new party has been deployed.\n     */\n    event Deployed(\n        address indexed deployedAddress,\n        address indexed deployer\n    );\n\n    /**\n     * Constructor.\n     */\n    constructor(address _overlord) public {\n      overlord = _overlord;\n    }\n\n    /**\n     * Deploy a new contract.\n     */\n    function deploy(\n      string _name,\n      uint256 _deposit,\n      uint _limitOfParticipants,\n      uint _coolingPeriod,\n      string _encryption\n    ) external {\n        Party p = new Party(\n          msg.sender,\n          _name,\n          _deposit,\n          _limitOfParticipants,\n          _coolingPeriod,\n          _encryption\n        );\n\n        emit Deployed(p, msg.sender);\n    }\n\n    /**\n     * Don't allow arbitrary calls\n     */\n    function () public {\n        revert();\n    }\n}\n",
  "sourcePath": "/Users/ram/dev/clients/noblocknoparty/contracts/contracts/Deployer.sol",
  "compiler": {
    "name": "solc",
    "version": "0.4.24+commit.e67f0147.Emscripten.clang"
  },
  "schemaVersion": "3.0.0-beta.0",
  "updatedAt": "2018-08-27T13:42:53.641Z"
}