{
  "contractName": "Overlord",
  "abi": [
    {
      "constant": true,
      "inputs": [],
      "name": "owner",
      "outputs": [
        {
          "name": "",
          "type": "address"
        }
      ],
      "payable": false,
      "stateMutability": "view",
      "type": "function",
      "signature": "0x8da5cb5b"
    },
    {
      "constant": false,
      "inputs": [
        {
          "name": "_newOwner",
          "type": "address"
        }
      ],
      "name": "transferOwnership",
      "outputs": [],
      "payable": false,
      "stateMutability": "nonpayable",
      "type": "function",
      "signature": "0xf2fde38b"
    },
    {
      "payable": false,
      "stateMutability": "nonpayable",
      "type": "fallback"
    },
    {
      "anonymous": false,
      "inputs": [
        {
          "indexed": true,
          "name": "oldDeployer",
          "type": "address"
        },
        {
          "indexed": true,
          "name": "newDeployer",
          "type": "address"
        }
      ],
      "name": "DeployerChanged",
      "type": "event",
      "signature": "0xb425bf30023a30c35ee17f3f416360da7ea96a46b589cfa6a14f39dc98a52bca"
    },
    {
      "anonymous": false,
      "inputs": [
        {
          "indexed": true,
          "name": "oldDataStorage",
          "type": "address"
        },
        {
          "indexed": true,
          "name": "newDataStorage",
          "type": "address"
        }
      ],
      "name": "DataStorageChanged",
      "type": "event",
      "signature": "0x5a8a3650eaeb24681b2fb1bc12cf506e399036a0d5a4180d8f8b7947a31419b3"
    },
    {
      "anonymous": false,
      "inputs": [
        {
          "indexed": true,
          "name": "previousOwner",
          "type": "address"
        },
        {
          "indexed": true,
          "name": "newOwner",
          "type": "address"
        }
      ],
      "name": "OwnershipTransferred",
      "type": "event",
      "signature": "0x8be0079c531659141344cd1fd0a4f28419497f9722a3daafe3b4186f6b6457e0"
    },
    {
      "constant": false,
      "inputs": [
        {
          "name": "_deployer",
          "type": "address"
        }
      ],
      "name": "setDeployer",
      "outputs": [],
      "payable": false,
      "stateMutability": "nonpayable",
      "type": "function",
      "signature": "0x96214735"
    },
    {
      "constant": true,
      "inputs": [],
      "name": "getDeployer",
      "outputs": [
        {
          "name": "",
          "type": "address"
        }
      ],
      "payable": false,
      "stateMutability": "view",
      "type": "function",
      "signature": "0x72630531"
    },
    {
      "constant": false,
      "inputs": [
        {
          "name": "_dataStorage",
          "type": "address"
        }
      ],
      "name": "setDataStorage",
      "outputs": [],
      "payable": false,
      "stateMutability": "nonpayable",
      "type": "function",
      "signature": "0x047e2b27"
    },
    {
      "constant": true,
      "inputs": [],
      "name": "getDataStorage",
      "outputs": [
        {
          "name": "",
          "type": "address"
        }
      ],
      "payable": false,
      "stateMutability": "view",
      "type": "function",
      "signature": "0x86cc31ac"
    }
  ],
  "bytecode": "0x6080604052336000806101000a81548173ffffffffffffffffffffffffffffffffffffffff021916908373ffffffffffffffffffffffffffffffffffffffff160217905550610694806100536000396000f300608060405260043610610078576000357c0100000000000000000000000000000000000000000000000000000000900463ffffffff168063047e2b271461008a57806372630531146100cd57806386cc31ac146101245780638da5cb5b1461017b57806396214735146101d2578063f2fde38b14610215575b34801561008457600080fd5b50600080fd5b34801561009657600080fd5b506100cb600480360381019080803573ffffffffffffffffffffffffffffffffffffffff169060200190929190505050610258565b005b3480156100d957600080fd5b506100e2610373565b604051808273ffffffffffffffffffffffffffffffffffffffff1673ffffffffffffffffffffffffffffffffffffffff16815260200191505060405180910390f35b34801561013057600080fd5b5061013961039d565b604051808273ffffffffffffffffffffffffffffffffffffffff1673ffffffffffffffffffffffffffffffffffffffff16815260200191505060405180910390f35b34801561018757600080fd5b506101906103c7565b604051808273ffffffffffffffffffffffffffffffffffffffff1673ffffffffffffffffffffffffffffffffffffffff16815260200191505060405180910390f35b3480156101de57600080fd5b50610213600480360381019080803573ffffffffffffffffffffffffffffffffffffffff1690602001909291905050506103ec565b005b34801561022157600080fd5b50610256600480360381019080803573ffffffffffffffffffffffffffffffffffffffff169060200190929190505050610507565b005b6000809054906101000a900473ffffffffffffffffffffffffffffffffffffffff1673ffffffffffffffffffffffffffffffffffffffff163373ffffffffffffffffffffffffffffffffffffffff161415156102b357600080fd5b8073ffffffffffffffffffffffffffffffffffffffff16600260009054906101000a900473ffffffffffffffffffffffffffffffffffffffff1673ffffffffffffffffffffffffffffffffffffffff167f5a8a3650eaeb24681b2fb1bc12cf506e399036a0d5a4180d8f8b7947a31419b360405160405180910390a380600260006101000a81548173ffffffffffffffffffffffffffffffffffffffff021916908373ffffffffffffffffffffffffffffffffffffffff16021790555050565b6000600160009054906101000a900473ffffffffffffffffffffffffffffffffffffffff16905090565b6000600260009054906101000a900473ffffffffffffffffffffffffffffffffffffffff16905090565b6000809054906101000a900473ffffffffffffffffffffffffffffffffffffffff1681565b6000809054906101000a900473ffffffffffffffffffffffffffffffffffffffff1673ffffffffffffffffffffffffffffffffffffffff163373ffffffffffffffffffffffffffffffffffffffff1614151561044757600080fd5b8073ffffffffffffffffffffffffffffffffffffffff16600160009054906101000a900473ffffffffffffffffffffffffffffffffffffffff1673ffffffffffffffffffffffffffffffffffffffff167fb425bf30023a30c35ee17f3f416360da7ea96a46b589cfa6a14f39dc98a52bca60405160405180910390a380600160006101000a81548173ffffffffffffffffffffffffffffffffffffffff021916908373ffffffffffffffffffffffffffffffffffffffff16021790555050565b6000809054906101000a900473ffffffffffffffffffffffffffffffffffffffff1673ffffffffffffffffffffffffffffffffffffffff163373ffffffffffffffffffffffffffffffffffffffff1614151561056257600080fd5b61056b8161056e565b50565b600073ffffffffffffffffffffffffffffffffffffffff168173ffffffffffffffffffffffffffffffffffffffff16141515156105aa57600080fd5b8073ffffffffffffffffffffffffffffffffffffffff166000809054906101000a900473ffffffffffffffffffffffffffffffffffffffff1673ffffffffffffffffffffffffffffffffffffffff167f8be0079c531659141344cd1fd0a4f28419497f9722a3daafe3b4186f6b6457e060405160405180910390a3806000806101000a81548173ffffffffffffffffffffffffffffffffffffffff021916908373ffffffffffffffffffffffffffffffffffffffff160217905550505600a165627a7a72305820376dfa78cede48508d717e859ee7a0061197e303e65c15abcb044aaa11b1b5880029",
  "source": "pragma solidity ^0.4.24;\n\nimport \"./zeppelin/ownership/Ownable.sol\";\nimport \"./DataStorageBridge.sol\";\nimport \"./DeployerBridge.sol\";\n\n/**\n * The permanent contract on the chain, to rule them all.\n */\ncontract Overlord is Ownable, DataStorageBridge, DeployerBridge {\n    /**\n     * Deployer contract address.\n     */\n    address private deployer;\n    /**\n     * Storage contract address\n     */\n    address private dataStorage;\n\n    /**\n     * Notify that deployer contract has changed.\n     */\n    event DeployerChanged(\n        address indexed oldDeployer,\n        address indexed newDeployer\n    );\n\n    /**\n     * Notify that deployer contract has changed.\n     */\n    event DataStorageChanged(\n        address indexed oldDataStorage,\n        address indexed newDataStorage\n    );\n\n    /**\n     * Change the deployer contract address.\n     */\n    function setDeployer(address _deployer) external onlyOwner {\n        emit DeployerChanged(deployer, _deployer);\n        deployer = _deployer;\n    }\n\n    /**\n     * Get the deployer contract address.\n     */\n    function getDeployer() external view returns (address) {\n        return deployer;\n    }\n\n\n    /**\n     * Change the data storage contract address.\n     */\n    function setDataStorage(address _dataStorage) external onlyOwner {\n        emit DataStorageChanged(dataStorage, _dataStorage);\n        dataStorage = _dataStorage;\n    }\n\n    /**\n     * Get the data storage contract address.\n     */\n    function getDataStorage() external view returns (address) {\n        return dataStorage;\n    }\n\n    /**\n     * Don't allow arbitrary calls\n     */\n    function() public {\n        revert();\n    }\n}\n",
  "sourcePath": "/Users/ram/dev/clients/noblocknoparty/contracts/contracts/Overlord.sol",
  "compiler": {
    "name": "solc",
    "version": "0.4.24+commit.e67f0147.Emscripten.clang"
  },
  "schemaVersion": "3.0.0-beta.0",
  "updatedAt": "2018-08-27T13:42:53.636Z"
}